S012000044485431315F44656D6F2E73726563EC
S31500000000A0090020653000008D2E00006130000040
S315000000106130000061300000613000006130000096
S315000000200000000000000000000000006130000039
S315000000306130000000000000613000006130000007
S31500000040151C0000191B0000C51C00000D1D00003A
S315000000505D2C00000D2500000D2500000D2500007B
S31500000060000000000000000000000000000000008A
S31500000070000000000000000000000000000000007A
S31500000080000000000000000000000000000000006A
S31500000090000000000000000000000000000000005A
S315000000A0000000000000000000000000000000004A
S315000000B0000000000000000000000000000000003A
S315000000C0000000000000000000000000000000002A
S315000000D0000000000000000000000000000000001A
S315000000E0000000000000000000000000000000000A
S315000000F000000000000000000000000000000000FA
S3150000010000000000000000000000000000000000E9
S3150000011000000000000000000000000000000000D9
S3150000012000000000000000000000000000000000C9
S3150000013000000000000000000000000000000000B9
S3150000014000000000000000000000000000000000A9
S315000001500000000000000000000000000000000099
S315000001600000000000000000000000000000000089
S315000001700000000000000000000000000000000079
S315000001800000000000000000000000000000000069
S315000001900000000000000000000000000000000059
S315000001A00000000000000000000000000000000049
S315000001B00000000000000000000000000000000039
S315000001C00348044B834202D0034B03B118477047E0
S315000001D05C0000205C00002000000000064B074980
S315000001E0C91A891048BF0131491003D0044B0BB11D
S315000001F001481847704700BF5C0000205C000020E3
S315000002000000000010B5064C237843B9FFF7D8FF6D
S31500000210044B13B10448AFF300800123237010BDD3
S315000002207800002000000000905F000008B5054B34
S315000002301BB105490548AFF30080BDE80840FFF74C
S31500000240CDBF00BF000000007C000020905F0000D2
S315000002500379022B24D0042B02D0012B24D0704723
S31500000260134A90F808C013889BB2591C89B21180B2
S31500000270104901F803C0037A0D2B03D013889BB2F3
S315000002801D2B14D900204FF0010C10B413880A4C12
S315000002909BB2C854108084F800C05DF8044B7047C8
S315000002A00122064B1A707047034A13707047704755
S315000002B060010020640100205E0100205F01002033
S315000002C030B50C4A0C4B0D4C1B68156883B03221B7
S315000002D00B4A2046009503F0B3FB204603F037FC9B
S315000002E021460246074801F08FF90022064B1A7094
S315000002F003B030BD540100205801002098010020B1
S315000003003C560000D80100205C0100204FF6FF7229
S3150000031010B59142034682B016D00C460D4A3221E2
S315000003200D48009403F08CFB00230C4C0A48237004
S3150000033003F00DFC08490246094801F065F92378E7
S31500000340002BFCD002B010BD02460649024803F05D
S31500000350ABFBE9E75C560000980100205F01002036
S31500000360D801002050560000837813B90122014BB2
S315000003701A7070475D010020F8B52B4802F06CF941
S3150000038003462A4D2A4C2A4600212748236002F0BC
S3150000039085F9206050BB274B2C88D3F88010DCB140
S315000003A0DF6F254E7D1C86FB052CEA17AC44C2EB9D
S315000003B06C12C2EB02123C29D3F88400A5EB820230
S315000003C01BD020443B2923F81740C3F88400DA6782
S315000003D008DC0131C3F88010002901DC0020F8BDDB
S315000003E0D3F88400B0FBF1F080B2F8BD01461348A3
S315000003F089B2FFF78BFF0020F1E79D6FDA676A1C71
S3150000040086FB02C633F815502044164423F81740DD
S31500000410D417C4EB6614C4EB0414401BA2EB84028D
S31500000420C3F884009A67DDE7080200205001002027
S31500000430CC010020C8000020898888886C560000FE
S315000004402DE9F0413C4D3D49284601F0F5FE0346B5
S315000004503B4E3C4C3C493046236001F0EDFE0346E2
S315000004603A493B48236001F0E7FE4FF47A71206079
S31500000470284601F0BDFD4FF47A712060304601F048
S31500000480B7FD03464FF47A713148236001F0B0FDA1
S3150000049000224FF47A712060284601F001FE4FF4E5
S315000004A07A77DFF8BC803946002220603046C8F8EB
S315000004B0007001F0F5FDAE4216BF264BC8F800707D
S315000004C01F60234F206000224FF47A71384601F0F6
S315000004D0E7FDAF42206029D04FF47A72B7420CBFD5
S315000004E01C4B1D4B1A60144801F02AFD03461448A4
S315000004F0236001F025FD03461548236001F020FD29
S3150000050000230246154922600B481A4601F038FDC1
S31500000510002312491A460A4801F032FDBDE8F041AF
S3150000052000230E491A460A4801F02ABD4FF47A7391
S31500000530C8F80030D7E700BF2C020020945A00000C
S315000005404C020020CC010020F05A00004C5B000059
S315000005506C020020B0000020AC00002095060000D0
S31500000560B40000202DE9F84F00241C4DDFF87C90E4
S315000005701B4FDFF87CA0224621462846C9F80040DA
S315000005803C60CAF8004001F08BFD164E2246DFF8AB
S315000005906480C9F800403C6830602146404601F05E
S315000005A07FFDA8450CBFC9F800403C60DAF800B0F2
S315000005B00D4C306000225946204601F071FDAC42D8
S315000005C0306007D044450CBFC7F800B0CAF800B089
S315000005D0BDE8F88FC9F800B0BDE8F88F2C020020FE
S315000005E0B0000020CC0100206C020020B4000020E6
S315000005F0AC0000204C0200202DE9F84F4FF47A742D
S315000006001D4DDFF884901D4EDFF880A021460022A4
S315000006102846C9F800403460CAF8004001F040FDA1
S31500000620174FD6F80080C9F80040164C4146002204
S315000006302060384601F034FDAF420CBFC9F8008097
S31500000640C6F80080DAF800B0DFF8448020600022A7
S315000006505946404601F024FDA845206007D0B8451C
S315000006600CBFC6F800B0CAF800B0BDE8F88FC9F8EC
S3150000067000B0BDE8F88F00BF2C020020B0000020BB
S315000006804C020020CC010020B4000020AC00002069
S315000006906C0200202C4A13787BB92C4B1B685BB983
S315000006A02B4B1B6843B9117831B12A4913700B786B
S315000006B0002B47D0FFF7A0BF7047244B19680029CD
S315000006C02FDD4FF0000CF0B4234C244DD4E900018B
S315000006D0461C41F10007C4E90067D4E900018542E0
S315000006E07CEB010C0DD200260027C4E900671849EF
S315000006F0086800281ADD08680138086001201849D2
S3150000070008701B685BB9124B1B6843B9117831B18D
S31500000710104913700B7893B1F0BCFFF76DBFF0BCB6
S3150000072070470B4909680029CBDCB7E71868002831
S31500000730E4DD3B241868013818600C60DEE7F0BC85
S31500000740FFF710BFFFF70EBFA800002058010020DA
S3150000075054010020A9000020980000209F86010077
S315000007605C0100202DE9F84F40F2D9241D4DDFF839
S3150000077084901D4EDFF880A0214600222846C9F845
S3150000078000403460CAF8004001F08AFC174FD6F8E2
S315000007900080C9F80040164C4146002220603846C9
S315000007A001F07EFCAF420CBFC9F80080C6F800809D
S315000007B0DAF800B0DFF8448020600022594640464F
S315000007C001F06EFCA845206007D0B8450CBFC6F8FE
S315000007D000B0CAF800B0BDE8F88FC9F800B0BDE8AF
S315000007E0F88F00BF2C020020B00000204C02002031
S315000007F0CC010020B4000020AC0000206C020020D8
S3150000080038B5144C1449204600F048FF0023134D18
S315000008101A462046124900F0BBFE1249284601F04E
S31500000820A9FF0346104C11492846236002F0A8F898
S315000008302060FFF705FE0E4B78220021184603F0D4
S3150000084053F90021034600220020C3E92022C3E910
S315000008501E0138BDD8010020285A000008020020D9
S3150000086051020000705A0000CC0100205C5A0000C2
S31500000870C800002008B5164B1B7883B90146154BF6
S315000008801548164A1B68006812680343134307D0CD
S3150000089040F6B733994212DCB1F57A7F0BDC08BD1E
S315000008A0B1F57A7F0FDD40F6B7339942F7DC0C4895
S315000008B089B2FFF72BFDBDE80840FFF753BFBDE83F
S315000008C00840FFF74FBEBDE80840FFF795BE00BFE2
S315000008D094000020B4000020B0000020AC000020EE
S315000008E090560000FFFFFFFF2DE9F84F5E4FDFF83F
S315000008F0A481DFF8A4913B68D8F80050D9F80040ED
S3150000090043EA050252EA040A76D00646DFF88CA1CD
S31500000910DFF87CB1AAFB0330400806FB00F002F0CA
S315000009205BFD0022514B02F0FBFE9FED4D1B41EC9F
S31500000930100B03F065FD002251EC100B4B4B02F03F
S31500000940C5FD02F0D5FFAAFB05230546580806FBA0
S3150000095000F002F041FD0022444B02F0E1FE9FED63
S31500000960401B41EC100B03F04BFD002251EC100B29
S315000009703E4B02F0ABFD02F0BBFFAAFB04A46408E9
S31500000980824606FB04F002F027FD0022374B02F0F8
S31500000990C7FE9FED331B41EC100B03F031FD334BCB
S315000009A051EC100B002202F091FD02F0A1FF002293
S315000009B004462946584601F073FB2D4E2D4B002266
S315000009C05146306018463D6001F06AFB294B3060A5
S315000009D05B454FF00002214627480CBFC7F800A030
S315000009E0C8F800A001F05CFB3D603060C8F800A0CC
S315000009F0C9F80040BDE8F88F204A21492148224C19
S31500000A0003F052F81F4884F800A003F0A0F81D492F
S31500000A1002461E4800F0F8FD2378002BFCD01C4E41
S31500000A2000224FF47A71304601F03AFB4FF47A74A3
S31500000A30114DDFF83CA00022CAF8000021462846E6
S31500000A403C6001F02DFBB542CAF8000005D0094B09
S31500000A509D42CDD1C8F80040CCE73C60CAE700BF54
S31500000A60175D74D14517DD3FB400002000408F406C
S31500000A70CC0100204C0200206C020020BC56000075
S31500000A8050560000980100205F010020D801002088
S31500000A902C020020B0000020AC000020ABAAAAAABD
S31500000AA02DE9F041012882B015D0022802D002B00B
S31500000AB0BDE8F081A3490B6801335A4202F00302F4
S31500000AC003F0030358BF53420B60032BEFD8DFE854
S31500000AD003F08EB3745A00259A4C32219A4A9B4BE6
S31500000AE000959B4825609B4C02F0AAFF984825700C
S31500000AF003F02DF896490246974800F085FD2378C5
S31500000B00002BFCD0954A964C1368013384FB0314E2
S31500000B10A4EBE37404EB44041C1B012C146000F0EA
S31500000B20B680022C00F0CF80002CC0D18D4D22461D
S31500000B302146284601F0B4FA03468B4F8B4EDFF868
S31500000B4048822246214638463360C8F8004001F004
S31500000B50A7FAAF4216BF864BC8F800401C60854C0A
S31500000B60306000224FF47A71204601F099FAAC42C7
S31500000B70306000F0DD80BC424FF47A7240F0CC80E9
S31500000B807B4B1A6093E7032432216F4A7A4B009419
S31500000B906F4802F055FF00236E4C6D48237002F03B
S31500000BA0D6FF6B4902466C4800F02EFD2378002BD9
S31500000BB0FCD00320FFF798FE57E002243221624A58
S31500000BC06E4B0094624802F03BFF0023614C604884
S31500000BD0237002F0BCFF5E4902465F4800F014FD38
S31500000BE02378002BFCD00220FFF77EFE3DE0002597
S31500000BF03221554A624B5648564C009502F020FF6A
S31500000C005348257002F0A3FF51490246524800F0AE
S31500000C10FBFC2378002BFCD000225248114601F041
S31500000C203FFA00225048114601F03AFA0022514894
S31500000C30114601F035FA18E001243221424A514B9F
S31500000C400094434802F0FCFE0023424C40482370C7
S31500000C5002F07DFF3E4902463F4800F0D5FC23786E
S31500000C60002BFCD00120FFF73FFE474B4748198871
S31500000C70FFF74CFB3E4B46481988FFF747FB454BB1
S31500000C804548198802B0BDE8F041FFF73FBB354D36
S31500000C9000224FF47A71284601F002FA00224FF43E
S31500000CA07A73314F314EDFF8E080306011463846B6
S31500000CB0C8F8003001F0F4F9AF42306034D00022B9
S31500000CC02B4B1A601AE00022264D1146284601F0E9
S31500000CD0E7F900220346244F244EDFF8AC804FF498
S31500000CE07A7138463360C8F8002001F0D9F9AF426E
S31500000CF0306014D04FF47A721D4B1A6000221D4CDE
S31500000D001146204601F0CCF9AC42306015D0BC4209
S31500000D104FF000023FF434AF1E4B1A60C7E64FF4A3
S31500000D207A73C8F80030E9E70023C8F80030E5E731
S31500000D304FF47A73C8F80030B9E60023C8F80030DB
S31500000D40B5E600BFB80000205C560000D056000093
S31500000D50980100205F010020D8010020BC0000207F
S31500000D60565555552C0200204C020020CC0100207F
S31500000D70B00000206C0200206857000048570000B1
S31500000D808857000004570000B400002024570000D4
S31500000D9030570000AC0000203C570000F0B5044678
S31500000DA083B08DF807101646214613480DF1070249
S31500000DB001F03AF8114B186098B93778043C9DF861
S31500000DC00730A4B27FB1012F0BD153B1054621469E
S31500000DD00B48FFF79BFA0B4B357020461F70FFF749
S31500000DE05FFE03B0F0BD002BFBD121460648FFF79E
S31500000DF08DFA01233370F4E7D0010020CC010020E6
S31500000E00D057000094000020A857000010B5264ACD
S31500000E102649274802F048FE0023264C2448237022
S31500000E2002F095FE22490246234800F0EDFB2378A6
S31500000E30002BFCD0214A1D491D4802F035FE002337
S31500000E401B48237002F083FE194902461A4800F037
S31500000E50DBFB2378002BFCD0194A1449144802F016
S31500000E6023FE00231248237002F071FE1049024649
S31500000E70114800F0C9FB2378002BFCD0114A0B491E
S31500000E800B4802F011FE00230948237002F05FFEB2
S31500000E9007490246084800F0B7FB2378002BFCD030
S31500000EA00022094B1A8010BDF8570000505600006A
S31500000EB0980100205F010020D8010020285800007A
S31500000EC0405800006C58000060010020FFFFFFFF43
S31500000ED02DE9F047002444F24842AD4BAD4D1C705D
S31500000EE02B8882B09BB2934204D002B0BDE8F04793
S31500000EF0FFF78CBFAB78522BF7D12846A64902F0F4
S31500000F00FBFD0028F1D00470EB78413B132BECD8A5
S31500000F1001A252F823F000BF99120000051200004A
S31500000F20EB0E0000EB0E000061110000EB0E00005E
S31500000F30DB100000EB0E0000EB0E0000EB0E0000D5
S31500000F40EB0E0000EB0E0000EB0E0000EB0E0000B7
S31500000F50B9100000EB0E0000EB0E00002D10000093
S31500000F60D90F0000690F0000012100238B488C4A2D
S31500000F700170ADF804308DF806302B79D35C13F090
S31500000F80040300F0D4812B798DF804306B79D35C9F
S31500000F905B0740F16A8202236A79824EA9798DF84D
S31500000FA00520002208336B4401A803F8042C02F044
S31500000FB0BFFC337807464F2B00F0BB8133784F2BAD
S31500000FC000F00582FFF722FF00232B5501341E2C6B
S31500000FD0FBD102B0BDE8F0879FED697B0026724B1E
S31500000FE0724A7348167083ED007B00F0B9FF7148B2
S31500000FF000F0B6FF704800F0B3FF704C704A7149BC
S31500001000714802F051FD7048267002F0A0FD6E494D
S3150000101002466E4800F0F8FA2378002BFCD0002335
S315000010201A46EA5401331E2BFBD1D2E701225B4B51
S3150000103067481A7002F07CFC642828BF64204FF4CD
S315000010407A7202FB00F0634BA3FB0030400902F00A
S31500001050C3F90022604B02F063FB9FED4B1B41EC92
S31500001060100B03F0CDF95C4B51EC100B002202F093
S315000010702DFA02F03DFC0446A5B229465748FFF773
S3150000108045F9002221464A4801F00AF80646544B23
S31500001090544A294654481C601660FFF737F9534BEB
S315000010A053481988FFF732F9524B5348198802B052
S315000010B0BDE8F047FFF72AB92B794E2B00F03181B6
S315000010C044F24662AB889BB293427FF40EAF002493
S315000010D0FFF748FA494B1C707BE701222F4B3C482F
S315000010E01A7002F025FC642828BF64204FF47A7237
S315000010F002FB00F0374B2F4DA3FB0030400902F0F6
S315000011006BF90022344B02F00BFB9FED1F1B41ECE9
S31500001110100B03F075F9304B51EC100B002202F066
S31500001120D5F902F0E5FB0446A6B231463448FFF78E
S31500001130EDF800222846214600F0B2FF1C4B294A52
S315000011409D42274B294D18BF1E8810603146264800
S315000011500CBF1C602C60FFF7D9F825482988A1E749
S3150000116044F658111A4A13889BB28B427FF4BDAEDF
S315000011709378542B7FF4B9AEFEE700BFAFF300803F
S315000011800000000000000000175D74D14517DD3F28
S315000011905E010020640100209458000094000020A5
S315000011A04D5E00006A01002098000020A800002083
S315000011B02C0200204C0200206C0200205F0100205F
S315000011C0A05900005056000098010020D8010020C8
S315000011D0680100201F85EB5100408F409C5800009D
S315000011E0B4000020CC01002024570000B0000020ED
S315000011F030570000AC0000203C570000A90000203A
S31500001200C058000001229C4B9C481A7002F090FBCB
S31500001210642828BF64204FF47A7202FB00F0984BD2
S31500001220984DA3FB0030400902F0D6F80022964BF9
S3150000123002F076FA9FED8E1B41EC100B03F0E0F8FE
S31500001240914B51EC100B002202F040F902F050FBDA
S315000012500446A6B231468D48FFF758F800222846C4
S31500001260214600F01DFF8A4B8A4A9D42106053D0EA
S31500001270894B9D4200F0A580884B894F1E88894D79
S315000012803C6031468848FFF741F888482988FFF7CF
S315000012903DF8874839880AE744F64F61774A13884C
S315000012A09BB28B4221D044F24F6113889BB28B4292
S315000012B07FF41BAE9378462B7FF417AE00257D4A4C
S315000012C07D497E487E4C02F0EFFB7C48257002F09B
S315000012D03EFC7A4902467B4800F096F92378002BBB
S315000012E0FCD00122644B1A7073E60025764A7249D7
S315000012F07248734C02F0D8FB7048257002F027FC48
S315000013006E4902466F4800F07FF92378002BFCD027
S315000013100022594B1A705CE6604B624D604F1C60B0
S31500001320AFE7FFF769F90122684B1A7051E6534E91
S3150000133037E673784E2B7FF441AE96F80280B8F10B
S31500001340000F7FF43BAE554B1E68564B1B681E4381
S31500001350534B1B681E4313D05D4A57495748584C98
S3150000136002F0A2FB554884F8008002F0F0FB5349D6
S315000013700246544800F048F92378002BFCD028E6B2
S3150000138081B25448FEF7C2FF0121504BDFF85CA141
S31500001390197033460AFB07F2DFF85491DFF85481DF
S315000013A0C9E9002300220023DFF84CE1DFF830C151
S315000013B04948C8E900238EF80010CCF80070066092
S315000013C002E6384D354B364F1E882C6059E7727849
S315000013D0731C462A7FF4F6AD13F8012F462A7FF4D4
S315000013E0F1AD5E78002E7FF4EDAD2C4BD3F8008086
S315000013F02C4B1B6848EA0308294B1B6858EA03086C
S315000014001FD03648B9B2FEF781FF304BDFF8DCA0BB
S315000014101E7033460AFB07F2DFF8D4904FF0010E38
S31500001420C9E9002300220023DFF8C880DFF8C8C01E
S315000014302B482949C8E900238CF800E007600E60B4
S31500001440C2E5284A1C491D481D4C02F02DFB1B48CD
S3150000145084F8008002F07BFB18490246194800F028
S31500001460D3F82378002BFCD0B3E50B461E4E98E547
S31500001470175D74D14517DD3F9400002068010020F8
S315000014801F85EB516C02002000408F40E45800009D
S315000014902C020020CC0100204C020020B4000020C9
S315000014A0AC000020B0000020245700003057000098
S315000014B03C570000F85900005056000098010020E3
S315000014C05F010020D8010020C4590000A9000020B7
S315000014D0285900000C5900005401002084590000CE
S315000014E0580100205859000069010020808D5B00DA
S315000014F0A000002098000020A80000202DE9F84355
S31500001500FFF77EF9DFF85C90DFF85C80114F124E32
S31500001510124D134C04E04FF47A71642001F08AFCFA
S31500001520FEF72AFFFFF7A6F92A46052099F80010CC
S31500001530FFF734FC2246062098F80010FFF72EFC31
S315000015403B780BB1FFF7C4FC3378002BE3D0FEF7F2
S31500001550B7FEE0E75E0100205C010020C10000202C
S31500001560C0000020C3000020C2000020022800D0D6
S3150000157070470249024800F0C7BC00BFA85B0000E4
S31500001580D001002008B5FFF7B9FF002008BD00BF55
S3150000159098B191B1844610B40948DCF804408442FD
S315000015A007D1CCE90A32CCF8241000205DF8044BB0
S315000015B0704707205DF8044B70470120704700BF55
S315000015C055494353F0B5846A85B005460F4694469F
S315000015D06E46B4B194E80F0086E80F00EB6920462A
S315000015E01B78A760236084F804C0EB6AE3606B6A2B
S315000015F09847AC6A1CB196E80F0084E80F0005B066
S31500001600F0BD3446EAE700BF00282FD000292DD0D0
S3150000161062B3034630B420485C68844235D198787A
S3150000162000F00300022825D01869002830D11D6A71
S31500001630AC7804F07B04AC701C78CCB99C7804F0D0
S315000016400304121B0C44DC601C6A1A61A27842F087
S315000016508002A2701A783AB99A781C6A02F00303DB
S31500001660022B0DD00B78E37030BC70470120704719
S315000016700C46E8E741EA0200C007D5D50320F3E7A8
S315000016800B8843F47E43E381EEE7072030BC7047C6
S31500001690082030BC704700BF55494353002844D04A
S315000016A0002942D0CA69002A3FD02DE9F043546888
S315000016B0002C3CD003461F485D68854200F0F5814A
S315000016C040F21F2091F800C020FA0CF010F0010043
S315000016D000F0E88192F80CE0BEF1030F00F0DB8128
S315000016E0BEF1080F05D140F2192222FA0CF2D507F5
S315000016F018D591F90520002A15DB91F90720002A53
S3150000170011DB91F90920002A0DDB91F90B20002A43
S3150000171009DB012202FA0CF212F0060F0CD0227835
S31500001720120709D50320BDE8F08301207047012088
S31500001730F9E700BF55494353002040F2192E012511
S315000017400CF5800C0CF58C5C4FEA0C2218701A62B2
S315000017500A78D9612EFA02F22A4012011A704A69F1
S315000017609E785A628A6965F30106C3E90A029E7089
S315000017704A78CF4C824214BF2E4602269A7866F3E8
S3150000178001029A7091F90B6091F80AC0720906F08D
S315000017901F07203205FA07F744F82270BFF34F8F70
S315000017A0BFF36F8FC34A06F1C00752F8278060F374
S315000017B0104842F8278052F82770BF4F4FEA0C1C9A
S315000017C004EB06085FFA8CFC88F800C347F826305D
S315000017D091F9056091F804C04FEA561806F01F0902
S315000017E008F1200805FA09F944F82890BFF34F8F4D
S315000017F0BFF36F8F06F1C00852F8289060F31049C6
S3150000180042F8289052F828804FEA0C1C04EB060890
S315000018105FFA8CFC88F800C347F8263091F9076018
S3150000182091F806C04FEA561806F01F0908F120087D
S3150000183005FA09F944F82890BFF34F8FBFF36F8F6D
S3150000184006F1C00852F8289060F3104942F8289033
S3150000185052F828804FEA0C1C04EB06085FFA8CFC51
S3150000186088F800C347F8263091F909C00E7A4FEA86
S315000018705C180CF01F0908F1200805FA09F944F86C
S315000018802890BFF34F8FBFF36F8F0CF1C00852F84B
S31500001890289060F3104942F8289052F82820320127
S315000018A0D2B2644484F8002347F82C30EFF3108654
S315000018B085F310884FF000450C78804AE54054685F
S315000018C024EA05045460526886F310881A6A9070F8
S315000018D01A6A10711A6A50721A6A90721A6AD0726B
S315000018E01A6A50830A782EFA02FE1EF0010F02D001
S315000018F040201A6AD07406201A6A10771A78002ACD
S3150000190040F0E0801C6ACA788878D20042EA001269
S315000019104878032800F0FC8000280CBFE220F22063
S31500001920D2B222701A6A9071C869027B082A00F046
S31500001930EB801C6A520002F00202627300254278B4
S315000019408478D201640104F02004D2B222431C6AD6
S3150000195025720478023C012C1C6A40F2CA80D2B27D
S31500001960E27140681A6A847854704578147865F391
S3150000197001041470C4789474D479007804F0A30434
S3150000198000F05C002043D0710020C3E90300C3E9E6
S315000019900500DC69474A94F90540CD6904F1C001A8
S315000019A052F8216095F800C060F3104642F82160B5
S315000019B052F821100CF0030CBFF35F8F4FF0010EAD
S315000019C06109890004F01F0401F1604101F56141DC
S315000019D00EFA04F4C1F880410C60D96991F90B4004
S315000019E004F1C00152F8216060F3104642F821600C
S315000019F052F82110BFF35F8F6109890004F01F04BC
S31500001A0001F160410EFA04F401F56141C1F880412B
S31500001A100C60D96991F9074004F1C00152F82160C0
S31500001A2060F3104642F8216052F82110BFF35F8F31
S31500001A306109890004F01F0401F160410EFA04F403
S31500001A4001F56141C1F880410C60D96991F909102D
S31500001A5001F1C00452F8246060F3104642F8246095
S31500001A6052F82420BFF35F8F4A09920001F01F014C
S31500001A7002F160420EFA01F102F56142C2F88011EC
S31500001A8011601A6A4CF0700C82F802C069890C4A1F
S31500001A9019815A6047E655894FF6FF7295427FF4E1
S31500001AA028AE3FE640F27A503DE60E203BE600BF08
S31500001AB000E100E000600040C8020020004008404D
S31500001AC055494353D869013AC0691403007AA4B250
S31500001AD01040000200F4706020431A6A40F00704C8
S31500001AE094821C6A40F00100A28A92B29042FBD115
S31500001AF009E7FF2565700078022808BF42F010024A
S31500001B00186AD2B2C2713FE70A241A6A547315E7FB
S31500001B10F22042F0400203E730B5EFF30383103BB7
S31500001B20394A5BB203F1C00152F8210020F480303B
S31500001B3042F8210052F82120344A52F82300C369A2
S31500001B401B699BB1036903B130BD026A002193781A
S31500001B5003F07F0343F004039370436AC160002BD4
S31500001B60F2D0BDE830408022FFF72CBD046A03693D
S31500001B702246002BEAD0037863B3B4F816C0CCF340
S31500001B80042C9C451FD2C2688378214D12E013783D
S31500001B90E37383780169C26890F800E003F00304F8
S31500001BA00CF1010C091B2244E645046A0161C2607E
S31500001BB009D941B103F00303022BE8D113882B4363
S31500001BC09BB2E381E5E7237903F07D0343F002034B
S31500001BD02371B7E78378C16803F00303022B0DD0A6
S31500001BE00B78E3708278D0E9031302F003029B1AA4
S31500001BF01144C0E90313002BA6D1A6E70B8843F4D2
S31500001C007E43E381EEE700BF00600040C80200208B
S31500001C1000FEFFFF10B582B0EFF30383103B274AA7
S31500001C205BB203F1C00152F8210020F4803042F883
S31500001C30210052F82120224A52F823402078236AB4
S31500001C40A8B9A27802F00302022A13D05979A3692F
S31500001C50C9B20191ABB9636A23B120460422FFF7EA
S31500001C60B1FC207840B3236ADA8AD20622D0DA8A17
S31500001C70D1061FD0198AA369C1F308010191002B6F
S31500001C80E9D0A27801A902F00302606901F052FFCF
S31500001C90D4E90521A37803F003031A44C91AC4E959
S31500001CA0052129B9636A1BB101222046FFF78AFC88
S31500001CB02078D7E7BE221A7102B010BD006000403E
S31500001CC0C802002010B5EFF303830E4A103B5CB246
S31500001CD052F82400026A937803F07B039370436AF8
S31500001CE01BB102220021FFF76DFC074A04F1C00375
S31500001CF052F8231021F4803142F8231052F8233091
S31500001D0010BD00BFC80200200060004010B5EFF310
S31500001D1003831C4A103B5CB252F82400037843B993
S31500001D20837803F00303022B03D0036A5979C9B2FF
S31500001D3003E0036A198AC1F3080193F804C01CF092
S31500001D40100F0CF0380206D093F81CC01CF0010FDF
S31500001D5008BF42F0400293F804C00CF0C70C83F8A9
S31500001D6004C0436A0BB1FFF72DFC074A04F1C00318
S31500001D7052F8231021F4803142F8231052F8233010
S31500001D8010BD00BFC8020020006000402DE9F84FDA
S31500001D900388DBB180464FF000094FF0010BDFF8F6
S31500001DA084A000241E4D4FEAC907D8F8043035F840
S31500001DB0022BD919898891420AD00134032CF4D117
S31500001DC0B8F8003009F101094B45EAD8BDE8F88FAB
S31500001DD0DB590BFA04F603F0B853B3F1807FF6B281
S31500001DE09AF8BB340ED03342E7D0012001F0EEF86A
S31500001DF09AF8BB34012023EA06038AF8BB3401F0C3
S31500001E00B5F8DAE73342D8D1012001F0DFF89AF8C5
S31500001E10BB34012033438AF8BB3401F0A7F8CCE782
S31500001E203C5E000000E0014080B10A4B0068984229
S31500001E300ED15AB10B0A08481B0153FA81F150F82A
S31500001E4021300020C3F34003137070470120704710
S31500001E500720704754524F5000080840F8B5064610
S31500001E60FFF794FFEFF31082012383F31088234FCB
S31500001E703B681BB92249CB704023CB703B680133CA
S31500001E803B6082F31088338823B300211D4D08E0A0
S31500001E901B01134445F82340328801318BB29A4224
S31500001EA018D9736853F8314003EBC1029288E003F6
S31500001EB04FEA1223D2B2EBD502EB031055F820E01D
S31500001EC024F4803C2EF4803E45F820E01B0145F8C2
S31500001ED020C0DEE7EFF31082012383F310883B680E
S31500001EE013B13B68013B3B603B681BB9802004494A
S31500001EF0CB70C87082F31088F8BD00BFC402002002
S31500001F00000D08400008084098B191B14A6808B52C
S31500001F1003464AB1094A186890420CD008461A602E
S31500001F20FFF79CFF002008BD0A88002AF2D0012096
S31500001F3008BD012070470E2008BD00BF54524F5007
S31500001F4050B1064B02689A4204D1D0E90232002011
S31500001F505A60704707207047012070475450470069
S31500001F6050B1064B02689A4204D1D0E902320020F1
S31500001F70DA607047072070470120704754504700C9
S31500001F8098B191B1844610B40948DCF80040844207
S31500001F9007D1CCE90632CCF8141000205DF8044BCA
S31500001FA0704707205DF8044B70470120704700BF5B
S31500001FB05450470070B5836984B004468C46164673
S31500001FC001AD9BB193E8070085E8070083F804C0DC
S31500001FD09E60E26918461A6063699847A3691BB157
S31500001FE095E8070083E8070004B070BD2B46EDE7CF
S31500001FF0F8B1114B02689A4219D183684A1E9A6653
S3150000200043681B782BB98368490801395965836889
S3150000201099658368D96AC90707D44FF4AA015A6635
S3150000202083681964D0E90232DA600020704707201D
S3150000203070470120704700BF5450470030B48C6E83
S3150000204001342AB1944203D930BC013A1A60704770
S31500002050029D496B0078ED0754BF01F01F01C1F3E3
S315000020600441032808D9090981F001016AB9A1B917
S3150000207030BC02225A60704701F00C01A1F1040144
S31500002080B1FA81F14909002AF1D0944201D8002918
S31500002090EED130BC03225A607047002CE8D0F8E736
S315000020A000286ED02DE9F04302F00306032E85B01A
S315000020B069D004464068174603780D46062B02F0A1
S315000020C00C0246D00AB1032B45D1414B22689A42F5
S315000020D053D1D4F80880D8F864300133AB4256D3D4
S315000020E09FED397B02AB2A46414600978DED027B78
S315000020F0FFF7A4FF039BD8F830909BB917F0080FA1
S3150000210014BF04220222B907029844D502F1120133
S3150000211008EB81014860A168133201EB8201486037
S31500002120D4F808807A061AD5D8F84020012E42F451
S315000021308002C8F8402040D029F44039D4F80880FD
S3150000214049EA0349A6B90020C8F8309005B0BDE8B1
S31500002150F083002AB9D1052005B0BDE8F083012E31
S315000021602ED029F44039022F49EA0349EAD1D3B9DE
S3150000217029F0407949EA0369E5E7072005B0BDE89B
S31500002180F08301207047012005B0BDE8F0830320ED
S3150000219005B0BDE8F0833244123208EB820250608B
S315000021A0D4F80880BEE70121606802AB00912A4698
S315000021B04146FFF743FF039BDAE7D4F80880D7E7E9
S315000021C0022FD5D1D3E700BFFFFFFFFF00000000BD
S315000021D054504700002800DA704710B400F16043FD
S315000021E00901124CC9B203F5614383F80013104B81
S315000021F044F8202000F1C00253F8221021F4803167
S3150000220043F8221053F82230BFF35F8F01224309AF
S315000022109B0000F01F0003F1604303F56143824019
S31500002220C3F880211A605DF8044B7047C80200208D
S3150000223000600040FFFFFFFF002900F017812DE935
S31500002240F043CB690D4685B0002B00F00B810446A8
S31500002250002800F007810B7A072B00F00381092B79
S3150000226000F000810A2B00F2FD800B78032B00F2B0
S315000022701481A34B02689A4200F0348101230A7C40
S315000022809340DAB2C360002A00F029814A69002A25
S3150000229000F0208195F91220002AC0F2258113F062
S315000022A00F0F0CBF01210021002265602174297CDB
S315000022B0944B0B441B02A3606B696361AB69C4E971
S315000022C00623EE69EFF31087012383F310884FF09E
S315000022D00040297C8C4BC840196921EA000119612C
S315000022E01B6987F310884FF42541A3680020196005
S315000022F0A3689FED817BDA62A368DA63A3689A64B8
S3150000230029782A7A03294FF00041A7684FEAC2527A
S3150000231008BF42F480326B68FA62A268013B116121
S31500002320A2685161A2689161A2685062A268906237
S31500002330A268B169D161A268F1691162A268936667
S31500002340A26853662B788DED027BB76B002B40F0AD
S315000023508F804FF0010903206A68D4F8088052087C
S31500002360013A0292C8F85420A1688A65297803299F
S3150000237003D9A168CA65A1680A66B26BD2B9327878
S31500002380AAB12A787178022A4FEA811E4FEA011C07
S3150000239000F0AC80032A03D000290CBF06220922D4
S315000023A03A4342EA0E0242EA0C0242F48077B278DD
S315000023B0002A74D16268D16991F83020D30705D517
S315000023C08A6AA368013ADA6491F83020930703D544
S315000023D0CA6AA168013A0A650022A1688A63A168EF
S315000023E0C1F88820B26B3AB996F8212096F82010E9
S315000023F0520742EA4132174396F83020002A14BFAA
S315000024004FF4A0014FF4AA01A26811642A78012AA8
S3150000241004D10022A168CA64A1680A65A26857634C
S31500002420A2681063A268C2F83090D4E90232DA607A
S31500002430697C224695F91200FFF7CCFE224696F8F3
S31500002440221096F92400FFF7C5FE96F925002246CC
S3150000245096F82310FFF7BEFE0020294B236005B037
S31500002460BDE8F083012005B0BDE8F0830120704788
S31500002470012BD4F8088028D000904146EA686068AD
S3150000248002ABFFF7DBFDDDE902210B0643EA014360
S3150000249043F0030043F0010964E70520E3E796F8FB
S315000024A003C029784FEA0C12022942EA8C121FD087
S315000024B0032904D0BCF1000F0CBF062109210A43F1
S315000024C047EA024242F0807774E7994603204FF0CC
S315000024D0FF3247E70A78012A7FF4E1AEDAE640F2F6
S315000024E07A50C0E70E20BEE70B20BCE7092257E76B
S315000024F00921E4E7AFF30080FFFFFFFF00000000C3
S31500002500545047009016400000400840F0B5EFF3E5
S315000025100382103A214C51B201F1C00C54F82C3010
S3150000252023F4803344F82C308B0003F1804303F509
S31500002530C043D3F800031A4850F82100456895F8BF
S3150000254000E0BEF1010F08D043692BB1BDE8F040B1
S3150000255000221146FFF72EBDF0BD0025D0E9026727
S31500002560B760866802F0FF02B5648668F56486681F
S31500002570356554F82C6065F3104644F82C60D3F8A2
S315000025800033BFF35F8F074C4B0902F01F020EFAB0
S3150000259002F2603344F82320D6E700BF0060004013
S315000025A0C802002000E100E0F0B5C769054689B021
S315000025B017B3BE466C468C46BEE80F003E460FC4B7
S315000025C09EE80F0084E80F00BCE80F000FC69CE8E9
S315000025D00F008EE80F00AB6938469847EB694BB1A0
S315000025E09C46EE46BEE80F00ACE80F009EE80F00E2
S315000025F08CE80F0009B0F0BD0F46ECE710B50246B7
S3150000260088B0EFF303831249103B5BB251F8230005
S31500002610EFF30383103B0F495BB2C03351F82340FD
S3150000262024F4803441F8234051F8233000214368D4
S315000026308DF802201C88026A8369ADF80040019279
S315000026408DF8081013B16946FFF7AEFF08B010BD4C
S31500002650C802002000600040C8B10F4A8368934258
S3150000266011D1C2689A4210D148F201010268B2F84B
S3150000267080309BB28B4202D013881B0409D4838A14
S3150000268000201380704707207047212070470120E3
S3150000269070470820704700BF4344415220B31AB325
S315000026A010B41B4C8368A3421AD1C4689C4228D13B
S315000026B0CBB21F2B1AD80123164C03FA01FC0CEAE5
S315000026C0040414B343685B699B79012B1DD003682E
S315000026D0103133F8113000205DF8044B1380704739
S315000026E007205DF8044B704701207047DC1CE4B2FC
S315000026F0012CE7D90C1DE5D0323B012BE2D9012094
S31500002700EFE721205DF8044B70471846E9E700BF64
S3150000271043444152FF39010010B400F1604C134CA0
S315000027200901134BC9B20CF5614C8CF8001300F18A
S31500002730C00144F8202053F8212022F4803243F8C7
S31500002740212053F82130BFF35F8F012243099B00FC
S3150000275000F01F0003F1604303F561438240C3F8B4
S3150000276080211A605DF8044B704700BFC802002044
S3150000277000600040002800F0C8802DE9F8430C46B0
S31500002780002900F0BF800B88002B40F0C080774AFC
S31500002790774B126A1B68C2F302618B40C2F30212C6
S315000027A07449D3408B4240F2D0806669054633783F
S315000027B043B1832B00F2A680052B03D1E378002BCF
S315000027C040F0A080A078012800F0A580337933B1CD
S315000027D0B3783F2B00F09680002B00F09380E378CF
S315000027E0022B00F28F80644BAA689A4200F0BB80ED
S315000027F0E36823B194F90630002BC0F2A8800023C9
S315000028006C60E268AA612269C5E9073223885B0227
S3150000281003F1804303F5B8132B606069A3788278CF
S315000028205B03002A40F0838043F4507103790BB1B7
S3150000283041F0800189B2A9828278C7781202237991
S3150000284007F03F0702F47C523A43E778DB0343EA9A
S315000028504703477890F800E043EA4713EFF31089FF
S315000028604FF0010C8CF31088B4F80080434FC8F188
S3150000287010080CFA08FCD7F80C8028EA0C0CC7F8EC
S315000028800CC0FF6889F3108847F6FF5739402F6858
S3150000289092B2398029689BB20A822A68D3812B6852
S315000028A083F80CE083792A68A3F10103B3FA83F372
S315000028B05B0982F8D03094F90600002803DB2A462B
S315000028C0617AFFF729FF94F90700002803DB2A46FF
S315000028D0A17AFFF721FF96F90700002803DB2A46B5
S315000028E0717AFFF719FF96F90800002803DB2A46DC
S315000028F0B17AFFF711FF00231F4A2B61AA60184621
S31500002900BDE8F8830120BDE8F8830120704740F256
S315000029107A50BDE8F883B3783F2BF4D0002BF2D081
S31500002920F3783F2BEFD0002B7FF459AFEBE73F2A2C
S3150000293043F410717FF47AAF0279002A7FF478AFFE
S3150000294043F4024141F0400174E71B20DBE796F9AE
S315000029500730002BBFF653AF96F90830002BBFF6B1
S315000029604EAF0B20CFE70E20CDE700BF00E00140C1
S31500002970540400203F420F004344415200400840A7
S31500002980002800F03781002900F034810346AB4A65
S315000029908068904240F024810A68002A00F02A816B
S315000029A02DE9F043A64C12EA040040F020815E684F
S315000029B04D68B778012F00F01581002D40F0178182
S315000029C0746926791EB112F0C04F40F01081267846
S315000029D08F68002E40F01081002F40F008818E7C19
S315000029E0002E40F00481D1F80CC0BCF1000F1BD0C2
S315000029F0BCF808E0BEF1000F16D00EF42066B6F55E
S31500002A00206F00F006811EF4804F0DD0BCF80AE05E
S31500002A10BCF80C60B64500F2EA80BCF80EE0BCF8E3
S31500002A201060B64500F2E38041F2360E1E681FFACA
S31500002A3082FCA6F804C01E6822F0C04CAAB2B2827C
S31500002A401E68BAB232811E6827F0C0424FEA1C47A0
S31500002A50F7801E6825F0C0452D0CF5821D68120C06
S31500002A606A81784A156A784AC5F302661268C5F320
S31500002A700215B240EA40754DA5FB025292090EFBC3
S31500002A8002F2734DA5FB0252D1E90065920C0132A8
S31500002A90072A46EA050638BF072216F0005E20D050
S31500002AA0EFF3108E012585F310886A4DEF6827F441
S31500002AB08007EF60ED688EF310889027664D2F70C3
S31500002AC01D68D7B285F8DE700D6815F0005F0CBF83
S31500002AD04FF4806E4FF4807E8D68AF0048BF4EF095
S31500002AE0010E76000FD51D68D2B285F8DF200A6880
S31500002AF055008A684CBF4EF4007E4EF4006E5200BC
S31500002B0048BF4EF0020E1A681FFA8EFEA2F812E0B7
S31500002B10CA68002A7BD015892F0576D51E68A6F8C7
S31500002B2090501E685789A6F89C701E689789A6F86B
S31500002B309E7017681E681FFA87FEA6F894E04FEA93
S31500002B40174E1E682EF4C04E1FFA8EFEA6F896E0AB
S31500002B501E68C7F3417786F8927057681E681FFA99
S31500002B6087FEA6F898E04FEA174E1E682EF4C04E70
S31500002B701FFA8EFEA6F89AE01E68C7F3417786F81C
S31500002B8093701689B6050DD5D67C977C37431E689B
S31500002B9086F8A6701E68D789A6F8A870168A1A68DD
S31500002BA0A2F8AA601A68A2F890501A680D8AA2F8CC
S31500002BB08050227972B1BCFA8CFC1C68228892B2D1
S31500002BC022F01F021F32A2EB0C0292B222809C8AD4
S31500002BD022439A82194ADA600A681A61BDE8F083CC
S31500002BE0072070471DB114432C423FF4E9AE012083
S31500002BF0BDE8F0830120704742EA050637EA06067B
S31500002C00F5D1002F7FF4EBAEF1E72E46BAE7154675
S31500002C10C8E79CF812604FF001091F2E94BF4FF0D1
S31500002C2000084FF00108A6EB880609FA06F8DCF85A
S31500002C30006018EA060F3FF4E6AED8E74344415277
S31500002C4000C6FE9F00E0014054040020D34D6210F0
S31500002C5083DE1B430040084000300F400020FFF792
S31500002C60CDBC00BF064B074993F826001A6A51F8F7
S31500002C702030C2F302620449D3400B60704700BFA4
S31500002C8000E001405C00002054040020704700BFB3
S31500002C90F8B54AF2035001233F49404AA1F8FE0322
S31500002CA0A2F80431B2F804319BB2002BFAD14FF4EA
S31500002CB000404FF0010C0925394C3A4F3A4E6760F7
S31500002CC03A4F3549E7603A4F6761A2F800C126607E
S31500002CD0A060206191F82620086A54F82220354E1B
S31500002CE0C0F30260C240326081F8133481F8A2500A
S31500002CF091F880341BB991F88134990746D0264D56
S31500002D0095F88034002B36D00022234B83F881249B
S31500002D1083F880240023204981F8323091F83C3032
S31500002D201A07FBD543F2021000231B4A088581F8D7
S31500002D302A3092F83C309B06FBD501200523174923
S31500002D40F12581F81C011C49116282F8263092F89F
S31500002D502630106A54F82310C0F30260C140316077
S31500002D600024F0204FF42541144B1D731C72187378
S31500002D70A2F8FE13F8BD0121C82085F8801400F0E2
S31500002D8059F895F88034012BFBD1BDE74FF47A70E2
S31500002D90FFF77CFFBEE700BF00E0014000C0014036
S31500002DA05C00002000127A00002D310100366E0111
S31500002DB000C2EB0B54040020211202210020004027
S31500002DC038B50025164C0121C82084F8285000F09B
S31500002DD031F884F8245094F82430002BFBD194F871
S31500002DE024300F4A43F0020384F8243092F824304A
S31500002DF0C3F340019B07F9D4094882F8221090F8E2
S31500002E00223003F0FF04002BF9D1012000F0DEF898
S31500002E10044B012083F8BB44BDE8384000F0A6B857
S31500002E200030084000E00140A0F101000028FBD17D
S31500002E30704700BF4FF47A7310B400FB01F1114CD8
S31500002E40114A2468B2FBF4F2A1FB03043CB9B0FBBF
S31500002E50F2F0800860B15DF8044BFFF7E5BF920021
S31500002E60B1FBF2F1A1FB03132BB908460028F2D1FE
S31500002E705DF8044B70474FF0FF3C5DF8044B60462D
S31500002E80FFF7D2BF5404002000CA9A3B70B5002455
S31500002E900B4B0C4EB3F82021B3F84051ADB21540A0
S31500002EA025FA04F3DB0704D556F82430E0B203B163
S31500002EB0984701340E2CF3D1014BA3F8305170BD65
S31500002EC0006000408C02002030B5032085B000F081
S31500002ED07DF86FF0FF054FF0FF31204C00232246AE
S31500002EE04FF0010E1E488564CDE90111039104F1EE
S31500002EF0C00532F8020F590960B104A800EB810140
S31500002F0051F80C0C03F01F0C0EFA0CFC20EA0C0016
S31500002F1041F80C0C954203F10103EAD10199114BDA
S31500002F200F4A03201167C3F8801202995167C3F84C
S31500002F30841203999167C3F8881200F017F80023EA
S31500002F40094834F8022F03F1C00101330AB140F8F1
S31500002F502120A542F5D105B030BD00BF7A5D000045
S31500002F600080004000E100E000600040EFF31081C7
S31500002F70012383F31088124B33F8102092B22AB142
S31500002F8033F81020013A92B223F8102033F81030AB
S31500002F909BB293B910B40B4A0B4CB2F8FE3334F81B
S31500002FA010009BB243F4254323EA0003A2F8FE3344
S31500002FB081F310885DF8044B704781F310887047E1
S31500002FC04804002000E00140445E000030B4EFF306
S31500002FD01081012383F310880E4A32F810309BB219
S31500002FE06BB90D4C0D4DB4F8FE3335F810C09BB2DD
S31500002FF043EA0C0343F425439BB2A4F8FE3332F8AC
S31500003000103001339BB222F8103081F3108830BCA7
S31500003010704700BF4804002000E00140445E000005
S3150000302008B50C4A0346106840B103330A4923F039
S31500003030030303448B4205D8136008BD07490846BD
S315000030401160F2E700F06EFD0C2203461A604FF0A5
S31500003050FF3008BD50040020A0050020A005002078
S3150000306000BE704708B500F003F8FEF78BFAFEE7DE
S315000030704FF4700270B52B4B2B4CC3F88820002000
S315000030809C60FEF773FAFFF703FE0120FEF76EFA67
S315000030902368A3F5806383F30A882448244A002121
S315000030A0121A00F021FD2348234A2449121A00F07F
S315000030B041FD234D234B5B1B002B07DD00249E1097
S315000030C055F8043B01349847A642F9DCFFF7CAFDE0
S315000030D0FFF776FE0320FFF779FF4FF6FF72002415
S315000030E0194B03201A825A829A82DA821A835A83E9
S315000030F09A83DA83FFF73AFF0320FFF767FF134B44
S3150000310003205C609C60DC601C61FFF72FFF0220DF
S31500003110FEF72CFAFFF7D8FE2046BDE8704000F017
S3150000312017B800BF00ED00E00000000078000020A6
S31500003130A0050020000000205C000020BC5F00000D
S315000031405400002058000020000D084000000E40EA
S31500003150704700BF81F0004102E000BF83F00043EA
S3150000316030B54FEA41044FEA430594EA050F08BF1C
S3150000317090EA020F1FBF54EA000C55EA020C7FEAE0
S31500003180645C7FEA655C00F0E2804FEA5454D4EB5D
S315000031905555B8BF6D420CDD2C4480EA020281EA27
S315000031A0030382EA000083EA010180EA020281EA5F
S315000031B00303362D88BF30BD11F0004F4FEA0131B1
S315000031C04FF4801C4CEA113102D0404261EB4101C0
S315000031D013F0004F4FEA03334CEA133302D0524246
S315000031E063EB430394EA050F00F0A780A4F1010402
S315000031F0D5F1200E0DDB02FA0EFC22FA05F280183C
S3150000320041F1000103FA0EF2801843FA05F3594121
S315000032100EE0A5F120050EF1200E012A03FA0EFCA0
S3150000322028BF4CF0020C43FA05F3C01851EBE371CA
S3150000323001F0004507D54FF0000EDCF1000C7EEBE7
S3150000324000006EEB0101B1F5801F1BD3B1F5001F25
S315000032500CD349085FEA30004FEA3C0C04F1010444
S315000032604FEA445212F5800F80F09A80BCF1004F6D
S3150000327008BF5FEA500C50F1000041EB045141EAEF
S31500003280050130BD5FEA4C0C404141EB0101013CB8
S3150000329028BFB1F5801FE9D291F0000F04BF0146A7
S315000032A00020B1FA81F308BF2033A3F10B03B3F179
S315000032B020020CDA0C3208DD02F1140CC2F10C0209
S315000032C001FA0CF021FA02F10CE002F11402D8BF67
S315000032D0C2F1200C01FA02F120FA0CFCDCBF41EA33
S315000032E00C019040E41AA2BF01EB0451294330BD02
S315000032F06FEA04041F3C1CDA0C340EDC04F11404DF
S31500003300C4F1200220FA04F001FA02F340EA0300B5
S3150000331021FA04F345EA030130BDC4F10C04C4F1FB
S31500003320200220FA02F001FA04F340EA03002946DB
S3150000333030BD21FA04F0294630BD94F0000F83F425
S31500003340801306BF81F480110134013D4EE77FEA08
S31500003350645C18BF7FEA655C29D094EA050F08BF54
S3150000336090EA020F05D054EA000C04BF1946104635
S3150000337030BD91EA030F1EBF0021002030BD5FEA79
S31500003380545C05D14000494128BF41F0004130BDA1
S3150000339014F580043CBF01F5801130BD01F00045F5
S315000033A045F0FE4141F470014FF0000030BD7FEA68
S315000033B0645C1ABF194610467FEA655C1CBF0B4663
S315000033C0024650EA013406BF52EA033591EA030F7A
S315000033D041F4002130BD00BF90F0000F04BF002172
S315000033E0704730B54FF4806404F132044FF00005A5
S315000033F04FF0000150E700BF90F0000F04BF00211E
S31500003400704730B54FF4806404F1320410F0004583
S3150000341048BF40424FF000013EE700BF42004FEA7E
S31500003420E2014FEA31014FEA02701FBF12F07F43FB
S3150000343093F07F4F81F06051704732F07F4208BFB2
S31500003440704793F07F4F04BF41F40021704730B5B9
S315000034504FF4607401F0004521F000411CE700BF05
S3150000346050EA010208BF704730B54FF000050AE088
S3150000347050EA010208BF704730B511F0004502D589
S31500003480404261EB41014FF4806404F132045FEA8B
S31500003490915C3FF4D8AE4FF003025FEADC0C18BF34
S315000034A003325FEADC0C18BF033202EBDC02C2F126
S315000034B0200300FA03FC20FA02F001FA03FE40EAB8
S315000034C00E0021FA02F11444BDE600BF70B54FF0BC
S315000034D0FF0C4CF4E06C1CEA11541DBF1CEA13559A
S315000034E094EA0C0F95EA0C0F00F0DEF82C4481EA02
S315000034F0030621EA4C5123EA4C5350EA013518BF22
S3150000350052EA033541F4801143F4801338D0A0FB0E
S3150000351002CE4FF00005E1FB02E506F00042E0FBBB
S3150000352003E54FF00006E1FB03569CF0000F18BFC1
S315000035304EF0010EA4F1FF04B6F5007F64F5407469
S3150000354004D25FEA4E0E6D4146EB060642EAC621FC
S3150000355041EA55514FEAC52040EA5E504FEACE2E69
S31500003560B4F1FD0C88BFBCF5E06F1ED8BEF1004F6C
S3150000357008BF5FEA500E50F1000041EB045170BDE8
S3150000358006F0004646EA010140EA020081EA03012C
S31500003590B4EB5C04C2BFD4EB0C0541EA045170BD28
S315000035A041F480114FF0000E013C00F3AB8014F1A2
S315000035B0360FDEBF002001F0004170BDC4F10004EB
S315000035C0203C35DA0C341BDC04F11404C4F120056C
S315000035D000FA05F320FA04F001FA05F240EA0200C7
S315000035E001F0004221F0004110EBD37021FA04F6FD
S315000035F042EB06015EEA430E08BF20EAD37070BDB7
S31500003600C4F10C04C4F1200500FA04F320FA05F015
S3150000361001FA04F240EA020001F0004110EBD37017
S3150000362041F100015EEA430E08BF20EAD37070BD87
S31500003630C4F1200500FA05F24EEA020E20FA04F360
S3150000364001FA05F243EA020321FA04F001F000410F
S3150000365021FA04F220EA020000EBD3705EEA430E80
S3150000366008BF20EAD37070BD94F0000F0FD101F0AF
S315000036700046400041EB010111F4801F08BF013CE8
S31500003680F7D041EA060195F0000F18BF704703F026
S315000036900046520043EB030313F4801F08BF013DAD
S315000036A0F7D043EA0603704794EA0C0F0CEA135569
S315000036B018BF95EA0C0F0CD050EA410618BF52EA23
S315000036C04306D1D181EA030101F000414FF0000029
S315000036D070BD50EA410606BF1046194652EA430637
S315000036E019D094EA0C0F02D150EA013613D195EAAB
S315000036F00C0F05D152EA03361CBF104619460AD1F3
S3150000370081EA030101F0004141F0FE4141F47001FC
S315000037104FF0000070BD41F0FE4141F4780170BDEC
S3150000372070B54FF0FF0C4CF4E06C1CEA11541DBF51
S315000037301CEA135594EA0C0F95EA0C0F00F0A7F853
S31500003740A4EB050481EA030E52EA03354FEA013180
S3150000375000F088804FEA03334FF0805545EA131393
S3150000376043EA12634FEA022245EA111545EA10655B
S315000037704FEA00260EF000419D4208BF964244F1F2
S31500003780FD0404F5407402D25B084FEA3202B61A11
S3150000379065EB03055B084FEA32024FF480104FF4E5
S315000037A0002CB6EB020E75EB030E22BFB61A754659
S315000037B040EA0C005B084FEA3202B6EB020E75EBEC
S315000037C0030E22BFB61A754640EA5C005B084FEA54
S315000037D03202B6EB020E75EB030E22BFB61A754621
S315000037E040EA9C005B084FEA3202B6EB020E75EB2C
S315000037F0030E22BFB61A754640EADC0055EA060EED
S3150000380018D04FEA051545EA16754FEA06164FEA2F
S31500003810C30343EA52734FEAC2025FEA1C1CC0D1DB
S3150000382011F4801F0BD141EA00014FF000004FF068
S31500003830004CB6E711F4801F04BF01430020B4F129
S31500003840FD0C88BFBCF5E06F3FF6AFAEB5EB030CE1
S3150000385004BFB6EB020C5FEA500C50F1000041EBDE
S31500003860045170BD0EF0004E4EEA113114EB5C04AB
S31500003870C2BFD4EB0C0541EA045170BD41F480117E
S315000038804FF0000E013C90E645EA060E8DE60CEA86
S31500003890135594EA0C0F08BF95EA0C0F3FF43BAFA3
S315000038A094EA0C0F0AD150EA01347FF434AF95EA5A
S315000038B00C0F7FF425AF104619462CE795EA0C0F3E
S315000038C006D152EA03353FF4FDAE1046194622E70B
S315000038D050EA410618BF52EA43067FF4C5AE50EAE5
S315000038E041047FF40DAF52EA43057FF4EBAE12E7D5
S315000038F04A0011D212F5001211D20DD56FF4787369
S31500003900B3EB62520ED44FEAC12343F0004343EABD
S31500003910505323FA02F070474FF00000704750EA08
S31500003920013002D14FF0FF3070474FF00000704772
S315000039300A22002100F07AB8242B2DE9F0478646AA
S31500003940904601D8012B06D100F0ECF8162303604F
S315000039500020BDE8F0870D4633482A4615F8014B8E
S31500003960065D16F00806F8D12D2C10D12C7801260C
S31500003970951C33F0100215D1302C0DD12A7802F0A7
S31500003980DF02582A08D16C78023510230AE02B2C66
S3150000399004BF2C78951CECE7002BF6D1302C14BF15
S315000039A00A23082306F1004C00220CF1FF3C1046C6
S315000039B0BCFBF3F903FB19CAA4F13007092F0FD892
S315000039C03C46A3421BDD571C07D0814514D301D1C9
S315000039D0A24511DB00FB0340012215F8014BEBE782
S315000039E0A4F14107192F01D8373CEAE7A4F1610792
S315000039F0192F04D8573CE4E74FF0FF32EDE7531C8C
S31500003A0008D122236046CEF80030B8F1000FA0D0CE
S31500003A10691E06E006B14042B8F1000F99D0002AAF
S31500003A20F6D1C8F8001094E74D5E000013460A462A
S31500003A30014602480068FFF77FBF00BF0400002070
S31500003A400CB4184B30B50C1E9DB01D6808DA8B23DC
S31500003A504FF0FF302B601DB0BDE8304002B070471C
S31500003A604FF402730290069002A9ADF8143014BF09
S31500003A7004F1FF332346209A2846049307934FF612
S31500003A80FF73ADF8163021AB019300F0BDF9431C6E
S31500003A90BCBF8B232B60002CDDD0029B00221A704A
S31500003AA0D9E700BF040000200EB400B59CB06FF04B
S31500003AB000411DAB02900690079104910848094900
S31500003AC053F8042B059102A90068019300F09CF9B4
S31500003AD0029B00221A701CB05DF804EB03B070471D
S31500003AE0040000200802FFFF02440346934200D16F
S31500003AF0704703F8011BF9E70A7870B56AB970BD1B
S31500003B009A4209D10C46054614F8013F002BF6D01F
S31500003B1015F8016F9E42F7D001300378002BEFD1E4
S31500003B201846ECE7014B1868704700BF04000020F8
S31500003B30704770470A44431E914200D1704710B542
S31500003B4011F8014B914203F8014FF9D110BD03461C
S31500003B5013F8012B002AFBD1181A01387047FFFF12
S31500003B6038B50546002941D051F8043C0C1F002BFE
S31500003B70B8BFE41800F0E0F81D4A136833B9636073
S31500003B8014602846BDE8384000F0DCB8A34208D9E6
S31500003B90206821188B4201BF19685B6809182160EB
S31500003BA0EDE71A465B680BB1A342FAD911685018C3
S31500003BB0A0420BD120680144501811608342E0D125
S31500003BC018685B68084453601060DAE702D90C2372
S31500003BD02B60D6E7206821188B4202BF19685B6804
S31500003BE00918636008BF21605460CAE738BD00BF8A
S31500003BF09C05002070B50F4E0C460546316811B97C
S31500003C0000F0A8FB30602146284600F0A3FB431CC9
S31500003C1003D14FF0FF34204670BDC41C24F00304CA
S31500003C20A042F8D0211A284600F094FB0130F2D1C8
S31500003C30EFE700BF980500202DE9F843CD1C0646A6
S31500003C4025F0030508350C2D38BF0C25002D01DBAA
S31500003C50A94204D90C2333600020BDE8F883DFF8BD
S31500003C60D48000F069F8D8F800301C4644BB2946D9
S31500003C703046FFF7BFFF431C044658D1D8F8004032
S31500003C802746002F43D1002C4BD0236839463046B7
S31500003C9004EB030900F05EFB814542D12168304602
S31500003CA06D1A2946FFF7A6FF01303AD023682B4448
S31500003CB02360D8F800305A6862BBC8F800700FE07D
S31500003CC02268521B20D40B2A17D96119A3422560FA
S31500003CD018BF5960636808BFC8F8001062514B608E
S31500003CE0304600F02FF804F10B00231D20F00700EA
S31500003CF0C21A1CBF1B1AA350AFE76268A3420CBFCF
S31500003D00C8F800205A60EBE723466468AEE73C46F5
S31500003D107F68B6E71A465B68A342FBD1002353606F
S31500003D20DEE70C233046336000F00CF894E70560BC
S31500003D30D6E700BF9C0500200148FFF7F9BE00BF8B
S31500003D40940500200148FFF7F4BE00BF940500204B
S31500003D502DE9F0471F468E6882460C46BE429046C5
S31500003D600B682DD8B1F90C2012F4906F26D0656936
S31500003D70096905EB4505A3EB01097B1C05EBD57528
S31500003D804B446D109D4238BF1D46530527D5294625
S31500003D90FFF752FF064660B34A462169FFF7CAFE9F
S31500003DA0A38923F4906343F08003A38126614E44E4
S31500003DB06561A5EB090526603E46A560BE4200D9B1
S31500003DC03E4632464146206800F0AAFAA368002023
S31500003DD09B1BA360236833442360BDE8F0872A4613
S31500003DE000F0D6FA06460028E0D121695046FFF7D2
S31500003DF0B7FE0C234FF0FF30CAF80030A38943F01A
S31500003E004003A381E9E7FFFF2DE9F04F98468B8930
S31500003E109DB007461B060D46144610D50B6973B9AF
S31500003E204021FFF709FF2860286130B90C233B6069
S31500003E304FF0FF301DB0BDE8F08F40236B610023CB
S31500003E40CDF80C804FF00109DFF8A08109932023FB
S31500003E508DF8293030238DF82A3023469A4613F8F8
S31500003E60012B0AB1252AF9D1BAEB040B0BD05B461C
S31500003E70224629463846FFF76BFF013000F0A7803F
S31500003E80099A5A4409929AF80030002B00F09F8054
S31500003E9000234FF0FF320AF1010A049307938DF8CD
S31500003EA053301A93CDE90523544605224F4814F89A
S31500003EB0011B00F05FFA049AD8B9D00644BF20234C
S31500003EC08DF85330110744BF2B238DF853309AF8E1
S31500003ED000302A2B15D0079A544600204FF00A0CC2
S31500003EE0214611F8013B303B092B4BD9B0B1079263
S31500003EF014E0A0EB0803A24609FA03F31343049364
S31500003F00D2E7039B191D1B68002B0391BBBF5B42C5
S31500003F1042F0020207930793B8BF049223782E2B30
S31500003F200AD163782A2B32D1039B02341A1D1B68EF
S31500003F3043EAE37303920593DFF8C0A003222178D6
S31500003F40504600F017FA38B1A0EB0A004022049B55
S31500003F50013482401343049314F8011B06222448BB
S31500003F608DF8281000F006FA002836D0214B1BBB2E
S31500003F70039B073323F0070308330393099B33445A
S31500003F8009936AE70CFB02320C460120A8E70023DE
S31500003F9001344FF00A0C19460593204610F8012B00
S31500003FA0303A092A03D9002BC6D00591C4E70CFB89
S31500003FB0012104460123F0E703AB2A4604A938464B
S31500003FC000930D4BAFF30080421C0646D6D1AB8959
S31500003FD05B063FF52DAF09982CE703AB2A4604A9EB
S31500003FE038460093044B00F07DF8EDE74D5F000086
S31500003FF0575F000000000000513D0000535F0000C5
S315000040002DE9F047164698468A6807460B690C461E
S31500004010DDF820909342B8BF1346336091F84320F1
S315000040200AB1013333602368990642BF336802330D
S315000040303360256815F0060506D104F1190AE36810
S3150000404032689B1AAB422BDC94F843302268003B63
S3150000405018BF0123920630D404F143024146384684
S31500004060C847013023D023681A3454F80A2C03F0C9
S315000040700603042B0ABF54F80E5C002533684FF084
S31500004080000608BFED1A54F8123C08BF25EAE5758C
S315000040909342C4BF9B1AED18B5421AD1002008E01E
S315000040A00123524641463846C847013003D14FF0F6
S315000040B0FF30BDE8F0870135C1E7E1185A1C302012
S315000040C00233224481F8430094F8451082F84310E5
S315000040D0C2E70123224641463846C8470130E6D0AA
S315000040E00136D9E72DE9FF470F7E914680460C46FB
S315000040F0782F9A460C9E01F1430207D8622F0AD800
S31500004100002F00F0D180582F00F0B88004F142064D
S3150000411084F842703AE0A7F16303152BF6D801A1A3
S3150000412051F823F07D410000914100000D4100004F
S315000041300D4100000D4100000D41000091410000BD
S315000041400D4100000D4100000D4100000D41000031
S315000041508F420000BB410000494200000D410000B3
S315000041600D410000B14200000D410000BB410000BE
S315000041700D4100000D4100005142000033681A1D38
S315000041801B68326004F1420684F8423001239CE049
S3150000419033682068191D3160060601D51D6803E0E5
S315000041A04506FBD5B3F90050002D03DA2D236D42E9
S315000041B084F8433058480A2311E02168336808061A
S315000041C053F8045B02D4490648BFADB26F2F336083
S315000041D0514814BF0A230823002184F84310666857
S315000041E0002EA66005DB21682E4321F00401216024
S315000041F04BD01646B5FBF3F103FB1157C75D06F826
S31500004200017D2F460D46BB42F4D9082B0BD12368FE
S31500004210DF0708D5236961689942DEBF302306F8B7
S31500004220013C06F1FF36921B22614B4603AA21464A
S315000042304046CDF800A0FFF7E3FE01304AD14FF02B
S31500004240FF3004B0BDE8F087236843F02003236005
S3150000425078273248236884F845701F06316851F87C
S31500004260045B02D45F0648BFADB23160D90744BFD4
S3150000427043F0200323601DB11023ADE72648E9E78C
S31500004280236823F020032360F6E71646BDE733686C
S315000042902568181D616930602E061B6801D51960F6
S315000042A002E06806FBD51980002316462361BCE7A9
S315000042B0336800211A1D32601E686268304600F0BD
S315000042C059F808B1801B606063682361002384F895
S315000042D04330AAE72369324649464046D047013073
S315000042E0ADD023689B0713D4E068039B9842B8BF00
S315000042F01846A6E70123324649464046D0470130D4
S315000043009DD00135E36803995B1AAB42F2DCEBE71B
S31500004310002504F11906F5E75E5F00006F5F0000F7
S31500004320884210B501EB020402D98442234607D81D
S31500004330431EA14208D011F8012B03F8012FF8E71C
S31500004340024401468A4200D110BD13F8014D02F81D
S31500004350014DF7E738B50023054D044608462B60A6
S31500004360FEF75EFE431C02D12B6803B1236038BD05
S3150000437090050020C9B20346024410B59342184680
S3150000438001D1002003E0047801338C42F6D110BD40
S315000043902DE9F041074614460D4621B91146BDE800
S315000043A0F041FFF749BC2AB92546FFF7D9FB284655
S315000043B0BDE8F08100F01AF88442064602D8B4EB54
S315000043C0500FF4D821463846FFF736FC804608B928
S315000043D04546ECE7B4422246294628BF3246FFF757
S315000043E0A9FB29463846FFF7BBFBF1E751F8043C29
S315000043F0181F002BBCBF0B58C0187047FFFFFFFFEC
S31500004400F8B555EC114B2DED028B57EC106B00F007
S315000044107FF822462B4620462946B0EE408AF0EE2B
S31500004420608A01F0C1F878B9002200233046394687
S3150000443001F088F8F0B1002200232046294601F059
S3150000444081F840B19FED288BB0EE480AF0EE680A7D
S31500004450BDEC028BF8BD45EC104B00F049F8002886
S31500004460F2D0002200232046294601F075F80028E4
S31500004470EAD02EE0B0EE480AF0EE680A00F038F80E
S31500004480A0B10022002351EC180B01F05BF80028C4
S31500004490DAD047EC106B00F02BF80028D4D045ECAE
S315000044A0104B00F025F80028CED012E047EC106B38
S315000044B000F01EF80028E4D045EC104B00F018F888
S315000044C00028DED053EC182B51EC180B01F06CF8D9
S315000044D020B9FFF727FB22230360B5E7FFF722FB8E
S315000044E021230360B0E700BF000000000000F03F9A
S315000044F082B005488DED000B019B23F00043184464
S31500004500C00F02B0704700BF00001080FFFFFFFF22
S315000045102DE9F04F55EC114B25F0004393B053EACB
S31500004520040057EC106B12D1B31987F400228449AA
S315000045305241984291411DD222462B463046394679
S31500004540FEF70EFE41EC100B13B0BDE8F08F7D4870
S3150000455027F0004AB9463146824510D97A4A4A447C
S315000045600A43E9D1231985F40021754849419A4245
S315000045708841E1D39FED700B13B0BDE8F08FA846DC
S315000045802246504601D1002ED6D1DFF8B8C1634588
S31500004590E4D801D1002AE1D1B9F1000F20DB002ACD
S315000045A05DD1DFF8A0C163450BD09346674A9342BD
S315000045B040F0C784B8F1000FC0F20C8547EC106BD1
S315000045C0C2E7614B53440B43D4D0614B9A4540F24A
S315000045D0CA84B8F1000FC0F24F8545EC104BB3E723
S315000045E0DFF874C163454BD9002A40F0E483554A8D
S315000045F09342E6D04FF0020B04910290009347ECF1
S31500004600106B00F087FD0499009B029800295ED08C
S315000046104FEAD972013A52EA0B0100F08A800BF197
S31500004620FF3B5BEA020B00F0A1839FED437B8DED20
S31500004630047BB3F1844F40F29180464A9342444B47
S3150000464040F222849A4500F2CF84B8F1000FC0F2FE
S31500004650CF84002013B0BDE8F04F00F01DBE4FF030
S31500004660000B04910290009347EC106B00F052FD92
S315000046700499009B029851B34FEAD972013ACEE7EA
S31500004680DFF8CCC063450FD94FEA235CACF2FF3CA0
S31500004690BCF1140F40F37E84CCF1340C22FA0CFEEC
S315000046A00EFA0CFC94453CD0002A40F08783B8F102
S315000046B0804F00F0858404910290009347EC106BC4
S315000046C000F028FD0499009B029891BB8B4629F0C7
S315000046D040421E498A4202D0BAF1000F98D1B8F181
S315000046E0000F07DA0020194953EC102BFFF718F8D2
S315000046F041EC100BB9F1000FBFF626AF124B534435
S3150000470053EA0B0340F09C8453EC102B10461946D9
S31500004710FEF724FD02460B46FFF702F841EC100BAC
S3150000472012E7002A00F048840EF0010ECEF1020BCB
S3150000473097E732463B46E9E7000000000000F03FFD
S315000047400000F0FF0000F07F000010C00000F03F06
S31500004750FFFFEF3F0000F043FFFF3F43D84B00222F
S3150000476009EA030353B9D74B51EC100BFEF7AEFE23
S315000047706FF0340241EC100B10EE900A0315C0F3F3
S315000047801300D14EA3F2FF3306439A18CF4B98423B
S315000047900B9240F32C83CE4B984240F32F84013288
S315000047A0A6F5801600270B929FEDAF7B8DED087B5B
S315000047B09FEDAF7B8DED067B9FEDAB7B8DED107B8B
S315000047C053EC102B9246B34631465046DDE906239C
S315000047D0FEF7C4FC80468946504631467610DDE930
S315000047E00623CDE90CABFEF7BBFC02460B460020C8
S315000047F0B54946F00056FEF793FF8C468346494678
S31500004800634640465A46CDE90EBCFEF75FFE0A46B1
S31500004810014606F500230020CDE90012CDE902127B
S315000048200021064602460091D919DDE900AB0F4684
S315000048300B4650465946FEF749FE02460B46404691
S315000048404946FEF78BFC8046894630463946DDE907
S315000048500623FEF783FC02460B46DDE90C01FEF754
S315000048607DFC52465B46FEF731FE02460B4640464D
S315000048704946FEF773FCDDE90E23FEF727FEDDE968
S315000048800267CDE9060132463B4630463946FEF719
S315000048901DFE06460F4678A3D3E90023FEF716FE53
S315000048A077A3D3E90023FEF75BFC32463B46FEF7CF
S315000048B00DFE75A3D3E90023FEF752FC32463B46B4
S315000048C0FEF704FE72A3D3E90023FEF749FC324645
S315000048D03B46FEF7FBFD70A3D3E90023FEF740FC41
S315000048E032463B46FEF7F2FD6DA3D3E90023FEF701
S315000048F037FC8046894632463B4630463946FEF707
S31500004900E5FD02460B4640464946FEF7DFFD5246A8
S3150000491006460F465B46DDE90201FEF721FCDDE9AE
S315000049200623FEF7D3FD32463B460026FEF718FC6B
S315000049305246804689465B4650465946FEF7C6FDB6
S3150000494002460B46CDE90C230022624BFEF708FC1B
S3150000495042464B46FEF704FC0F46324650463B465F
S315000049605946FEF7B3FD002282468B46594B304628
S315000049703946FEF7F3FBDDE90C23FEF7EFFB0246B3
S315000049800B4640464946FEF7E9FBDDE90223FEF702
S315000049909DFD8046894632463B460026DDE90601F6
S315000049A0FEF794FD02460B4640464946FEF7D8FB05
S315000049B0804689465046424659464B46FEF7D0FB4E
S315000049C00F46304638A3D3E90023FEF77FFD524653
S315000049D05B4682468B4630463946FEF7BFFB0246AB
S315000049E00B4640464946FEF7B9FB31A3D3E90023FF
S315000049F0FEF76CFD02460B463046394616461F4604
S31500004A002DA3D3E90023FEF761FD02460B4630468F
S31500004A103946FEF7A5FBDDE91023FEF7A1FB0646A6
S31500004A200F460B98FEF7E8FC3246804689463B4621
S31500004A3050465946CDE902ABFEF792FBDDE9082365
S31500004A40FEF78EFB42464B46FEF78AFB00204246A7
S31500004A504B4682468B46FEF781FBDDE90823FEF7CF
S31500004A607DFBDDE9022337E00000000000000000C6
S31500004A70000000000000F03FEF4E454A287ECA3F86
S31500004A8065DBC9934A86CD3F01411DA96074D13FBC
S31500004A904D268F515555D53FFFAB6FDBB66DDB3FCE
S31500004AA0033333333333E33F000000E009C7EE3FFF
S31500004AB0FD033ADC09C7EE3FF5015B14E02F3EBE6D
S31500004AC00000F07F000040430000F03F8E98030096
S31500004AD079B60B0000000840FEF740FB02460B4685
S31500004AE030463946FEF73AFB0023CDE900450093F0
S31500004AF0DDE90089CDE902014246204629464B46BA
S31500004B00FEF72CFB52465B46FEF7E0FC06460F46D8
S31500004B1022462B46DDE90201FEF7D8FC02460B468B
S31500004B2030463946FEF71CFB04460D4642464B46C8
S31500004B3050465946CDE90245FEF7C8FC06460F46E3
S31500004B402046294632463B46FEF70AFBC84B04463A
S31500004B500D469942884640F30E81C64B0B440343EB
S31500004B6040F05C82AAA3D3E90023DDE90201FEF747
S31500004B70F7FA02460B462046294614461D4632469B
S31500004B803B46FEF7EBFA02460B462046294600F066
S31500004B9001FD002840F042824FF400734344B64CB6
S31500004BA0B8F1000F4FF00000C3F30A52C3F3130A23
S31500004BB0A2F2FF324AF4801A44FA02F4C2F1140255
S31500004BC004EA03014AFA02FA024630460B46B8BF27
S31500004BD0CAF1000A3946FEF7C1FA02460B460646F6
S31500004BE00F464FEA0A5BDDE90201FEF7B9FA0D4608
S31500004BF00024294688A3D3E900232046FEF766FC55
S31500004C003246804689463B4620462946FEF7A6FAA6
S31500004C1002460B46DDE90201FEF7A0FA80A3D3E9BE
S31500004C200023FEF753FC02460B462046294614464F
S31500004C301D467DA3D3E90023FEF748FC02460B463A
S31500004C4020462946FEF78CFA06460F46404632466F
S31500004C5049463B46FEF784FA424604460D464B4615
S31500004C60FEF77CFA02460B4630463946FEF776FAE0
S31500004C702246804689462B4620462946FEF726FCD4
S31500004C8006460F466AA3D3E90023FEF71FFC6AA374
S31500004C90D3E90023FEF762FA32463B46FEF716FCDE
S31500004CA067A3D3E90023FEF75BFA32463B46FEF7DD
S31500004CB00DFC65A3D3E90023FEF750FA32463B46C6
S31500004CC0FEF704FC62A3D3E90023FEF749FA324655
S31500004CD03B46FEF7FBFB02460B4620462946FEF7FF
S31500004CE03DFA06460F462046324629463B46FEF723
S31500004CF0EDFB02460B463046394616461F46002255
S31500004D004FF08043FEF72AFA02460B4630463946F4
S31500004D10FEF706FD424606460F464B462046294606
S31500004D20FEF7D4FB42464B46FEF71AFA02460B46FE
S31500004D3030463946FEF712FA22462B46FEF70EFAA1
S31500004D4002460B4600204D49FEF708FA0B46594429
S31500004D500246B1F5801FC0F26B811046DDE90423DF
S31500004D60FEF7B4FB41EC100BFFF7EEBB9FED3A7B71
S31500004D708DED047B5DE421F00043DFF808C1634557
S31500004D8040F2FF803E4B0B4403430AD132463B467A
S31500004D90FEF7E4F9DDE9022300F0F2FB00283FF418
S31500004DA0FBAE00220023DDE9040100F0D5FB00384C
S31500004DB018BF01204EE44FF0020B52E447EC106B93
S31500004DC0009100F0A7F9009900297FF4B2AC29F010
S31500004DD040492A4B994503D0BAF1000F7FF4A9AC9C
S31500004DE0B8F1000FC0F259814FF0000B86E49FED39
S31500004DF01C7B00278DED087B9FED1B7B8DED067BD5
S31500004E009DED087B8DED107BDAE400BFAFF30080EB
S31500004E10FE822B654715973C00000000432EE63FB7
S31500004E20EF39FAFE422EE63F396CA80C615C20BED3
S31500004E30D0A4BE726937663EF16BD2C541BDBB3E9A
S31500004E402CDE25AF6A56113F93BDBE166CC1663F78
S31500004E503E5555555555C53F000000000000F0BFB2
S31500004E600000000000000000000000000000F03F0D
S31500004E70FFFF8F40000070BF0000F0FF0000F03F12
S31500004E8000346F3FFFCB90409A45C0F0E7809E4BC1
S31500004E9000229A4500F2F4809B4B51EC100BFEF772
S31500004EA05DF906460F4688A3D3E90023FEF70EFBFD
S31500004EB082468B463046394685A3D3E90023FEF762
S31500004EC005FB0022914BCDE9000130463946FEF73D
S31500004ED0FDFA02460B4680A1D1E90001FEF73EF934
S31500004EE032463B46FEF7F2FA02460B460020884958
S31500004EF0FEF734F98046894632463B463046394607
S31500004F00FEF7E4FA02460B4640464946FEF7DEFA4D
S31500004F1073A3D3E90023FEF7D9FA02460B46DDE96F
S31500004F200001FEF71BF906460F4650465946324623
S31500004F303B46FEF715F9002052465B4682468B46F5
S31500004F40CAE5B8F1804F3BD0714A90457FF454AB27
S31500004F50B9F1000FFFF650AB47EC106B13B0BDE88C
S31500004F60F04F00F0A9B9B8F1000F9FED5F0BBFF647
S31500004F70EBAA05F1004300EE104A00EE903AFFF767
S31500004F80E3BA634A934200F29480DDE90023934634
S31500004F9092462DE6002A7FF411AFCCF1140C43FAA9
S31500004FA00CFE0EFA0CFC9C457FF4FFAA0EF0010ED7
S31500004FB0CEF1020BFFF7FABAB8F1804F7FF41AABC5
S31500004FC032463B4630463946FEF780FA41EC100B36
S31500004FD0FFF7BABA00204C4932463B46FEF7A0FB23
S31500004FE041EC100BFFF7B0BAB8F1000F7FF731AB09
S31500004FF0002013B0BDE8F04F00F056B99FED3C7BA2
S315000050004FF480278DED087B9FED3B7B8DED107B6C
S315000050109FED3B7B8DED067BFFF7D2BB0022002385
S31500005020DDE9040100F098FA003818BF0120E0E736
S31500005030504643EC102B00F077F851EC100B8DE640
S31500005040BBF1010F7FF480AA10EE901A10EE102A21
S3150000505001F1004343EC102BFFF776BA0022002340
S31500005060DDE9040100F078FA003818BF0120B8F134
S31500005070000FBFF6EFAABCE79FED1B0BFFF764BA64
S315000050800023DDE9040100F067FA003818BF0120AB
S31500005090B8F1000FADDCFFF7DDBA53EC102B0020A2
S315000050A01949FEF73DFB4FF0000B41EC100BFFF7E3
S315000050B025BB1B154FF48012A3F2FE3342FA03F30D
S315000050C06CE500BFAFF30080000000604715F73FB6
S315000050D044DF5DF80BAE543E555555555555D53FF5
S315000050E0FE822B654715F73F000000000000000018
S315000050F00000004003B8E23F06D0CF43EBFD4C3E34
S31500005100000000000000F83F0000F03F0000D03F24
S315000051100000E03F51EC100B024621F0004343EC47
S31500005120102B7047FFFFFFFF70B555EC104BC5F312
S315000051300A522B46064672BB25F00043234329D06C
S315000051403B4B204629460022FEF7C0F9394B044660
S315000051500D469E4252DBC1F30A520B46363A4CF2DA
S3150000516050318E4223DC164440F2FE7296421EDC1B
S31500005170002E34DC16F1350F38DB6FF31E5336364E
S315000051800022204643EA06552B4B2946FEF79EF998
S3150000519041EC100B70BD40F2FF718A42DFD122460E
S315000051A020462946FDF7DCFF41EC100B70BD002DB3
S315000051B017A1D1E9000107DB15A3D3E90023FEF708
S315000051C085F941EC100B70BD13A1D1E9000110A3C4
S315000051D0D3E90023FEF77AF941EC100BF3E76FF3FE
S315000051E01E5343EA065545EC104B70BD002D0CA12D
S315000051F0D1E9000102DA0CA1D1E9000108A3D3E943
S315000052000023FEF763F941EC100B70BDAFF300808D
S315000052109C7500883CE4377E9C7500883CE437FE2C
S3150000522059F3F8C21F6EA50159F3F8C21F6EA58186
S3150000523000005043B03CFFFF0000903C10B52DED40
S31500005240028BB0EE408AF0EE608A0446FEF76AFCF6
S315000052500460B0EE480AF0EE680ABDEC028B10BDA1
S3150000526000B553EC102B83B090B1104603F100410A
S31500005270CDE9000110461946DDE90023FEF726F9BF
S3150000528041EC100B222003B05DF804EBFFF7D6BF0C
S3150000529010461946ECE700BF9FED010BFFF7E0BF94
S315000052A000000000000000109FED010BFFF7D8BFC3
S315000052B0000000000000007073482DE9F84F55EC1F
S315000052C0104BA84322462B4600F09E80002D214617
S315000052D05EDD2C1500F0C880C3F31303E207A4F2C9
S315000052E0FF3743F4801303D4CA0F490002EB43038C
S315000052F05B0000264A004FF0160C03EBD173B6464E
S315000053007F104FF400110EEB0100D40F52009842AB
S3150000531003DC00EB010E1B1A0E44BCF1010C04EB7E
S3150000532043034FEA5101EED1654620244FF0004178
S3150000533013E0904208D89E4506D1002800EB010CE8
S315000053403DDB0023121A0D44D00F013C4FEA5101F8
S3150000535000EB43034FEA420235D09E450CEB0100B9
S31500005360E7DA002800EB010C07DB9042F046A3EBDE
S315000053700E030BD9013BC646E4E7BCF1000FF4DB94
S3150000538090420EF10108A3EB0E03F3D8C646D9E707
S3150000539025F00040204335D0002D5AD1CA0A153BCE
S315000053A04905002AFAD0D6021C46084613465CD5A3
S315000053B020254FF0FF32E840A41A03438CE7BCF1E6
S315000053C0000FDDDABDE7134312D0DFF8C4A0DFF823
S315000053D0C4B0DAE90001DBE90023DAE90089FDF768
S315000053E0BDFE02460B464046494600F0BFF8B8B936
S315000053F06C08264944EAC67201EB660101EB0753C5
S3150000540043EC102BBDE8F88F20462946FEF75EF8E0
S3150000541022462B46FDF7A4FE41EC100BBDE8F88FA3
S31500005420B5F1FF3FDAE90001DBE9002328D0FDF7FB
S3150000543097FE02460B46DAE900894046494600F0E7
S315000054408BF8F8B1AB1C05F1020408BF01366408FD
S31500005450CFE720462946FDF781FE02460B46FEF7BA
S315000054605FF941EC100BCDE7104600215B000A46C0
S315000054700131DD02FAD5C1F1200500FA01F19AE702
S315000054800136B6E70135B3E70000F07F0000E03FE4
S31500005490885F0000805F00004FF0FF3C06E000BF21
S315000054A04FF0010C02E000BF4FF0010C4DF804CDA7
S315000054B04FEA410C7FEA6C5C4FEA430C18BF7FEA67
S315000054C06C5C1BD001B050EA410C0CBF52EA430C95
S315000054D091EA030F02BF90EA020F0020704710F115
S315000054E0000F91EA030F58BF994208BF90422CBFA4
S315000054F0D8176FEAE37040F0010070474FEA410C9D
